{
  "contractName": "Dex",
  "abi": [
    {
      "inputs": [],
      "stateMutability": "nonpayable",
      "type": "constructor"
    },
    {
      "anonymous": false,
      "inputs": [
        {
          "indexed": false,
          "internalType": "uint256",
          "name": "tradeId",
          "type": "uint256"
        },
        {
          "indexed": false,
          "internalType": "uint256",
          "name": "orderId",
          "type": "uint256"
        },
        {
          "indexed": true,
          "internalType": "bytes32",
          "name": "ticker",
          "type": "bytes32"
        },
        {
          "indexed": true,
          "internalType": "address",
          "name": "trader1",
          "type": "address"
        },
        {
          "indexed": true,
          "internalType": "address",
          "name": "trader2",
          "type": "address"
        },
        {
          "indexed": false,
          "internalType": "uint256",
          "name": "amount",
          "type": "uint256"
        },
        {
          "indexed": false,
          "internalType": "uint256",
          "name": "price",
          "type": "uint256"
        },
        {
          "indexed": false,
          "internalType": "uint256",
          "name": "date",
          "type": "uint256"
        }
      ],
      "name": "NewTrade",
      "type": "event"
    },
    {
      "inputs": [],
      "name": "admin",
      "outputs": [
        {
          "internalType": "address",
          "name": "",
          "type": "address"
        }
      ],
      "stateMutability": "view",
      "type": "function",
      "constant": true
    },
    {
      "inputs": [],
      "name": "nextOrderId",
      "outputs": [
        {
          "internalType": "uint256",
          "name": "",
          "type": "uint256"
        }
      ],
      "stateMutability": "view",
      "type": "function",
      "constant": true
    },
    {
      "inputs": [],
      "name": "nextTradeId",
      "outputs": [
        {
          "internalType": "uint256",
          "name": "",
          "type": "uint256"
        }
      ],
      "stateMutability": "view",
      "type": "function",
      "constant": true
    },
    {
      "inputs": [
        {
          "internalType": "bytes32",
          "name": "",
          "type": "bytes32"
        },
        {
          "internalType": "uint256",
          "name": "",
          "type": "uint256"
        },
        {
          "internalType": "uint256",
          "name": "",
          "type": "uint256"
        }
      ],
      "name": "orderBook",
      "outputs": [
        {
          "internalType": "uint256",
          "name": "id",
          "type": "uint256"
        },
        {
          "internalType": "address",
          "name": "trader",
          "type": "address"
        },
        {
          "internalType": "enum Dex.Side",
          "name": "side",
          "type": "uint8"
        },
        {
          "internalType": "bytes32",
          "name": "ticker",
          "type": "bytes32"
        },
        {
          "internalType": "uint256",
          "name": "amount",
          "type": "uint256"
        },
        {
          "internalType": "uint256",
          "name": "filled",
          "type": "uint256"
        },
        {
          "internalType": "uint256",
          "name": "price",
          "type": "uint256"
        },
        {
          "internalType": "uint256",
          "name": "date",
          "type": "uint256"
        }
      ],
      "stateMutability": "view",
      "type": "function",
      "constant": true
    },
    {
      "inputs": [
        {
          "internalType": "uint256",
          "name": "",
          "type": "uint256"
        }
      ],
      "name": "tokenList",
      "outputs": [
        {
          "internalType": "bytes32",
          "name": "",
          "type": "bytes32"
        }
      ],
      "stateMutability": "view",
      "type": "function",
      "constant": true
    },
    {
      "inputs": [
        {
          "internalType": "bytes32",
          "name": "",
          "type": "bytes32"
        }
      ],
      "name": "tokens",
      "outputs": [
        {
          "internalType": "bytes32",
          "name": "ticker",
          "type": "bytes32"
        },
        {
          "internalType": "address",
          "name": "tokenAddress",
          "type": "address"
        }
      ],
      "stateMutability": "view",
      "type": "function",
      "constant": true
    },
    {
      "inputs": [
        {
          "internalType": "address",
          "name": "",
          "type": "address"
        },
        {
          "internalType": "bytes32",
          "name": "",
          "type": "bytes32"
        }
      ],
      "name": "traderBalances",
      "outputs": [
        {
          "internalType": "uint256",
          "name": "",
          "type": "uint256"
        }
      ],
      "stateMutability": "view",
      "type": "function",
      "constant": true
    },
    {
      "inputs": [
        {
          "internalType": "bytes32",
          "name": "ticker",
          "type": "bytes32"
        },
        {
          "internalType": "enum Dex.Side",
          "name": "side",
          "type": "uint8"
        }
      ],
      "name": "getOrders",
      "outputs": [
        {
          "components": [
            {
              "internalType": "uint256",
              "name": "id",
              "type": "uint256"
            },
            {
              "internalType": "address",
              "name": "trader",
              "type": "address"
            },
            {
              "internalType": "enum Dex.Side",
              "name": "side",
              "type": "uint8"
            },
            {
              "internalType": "bytes32",
              "name": "ticker",
              "type": "bytes32"
            },
            {
              "internalType": "uint256",
              "name": "amount",
              "type": "uint256"
            },
            {
              "internalType": "uint256",
              "name": "filled",
              "type": "uint256"
            },
            {
              "internalType": "uint256",
              "name": "price",
              "type": "uint256"
            },
            {
              "internalType": "uint256",
              "name": "date",
              "type": "uint256"
            }
          ],
          "internalType": "struct Dex.Order[]",
          "name": "",
          "type": "tuple[]"
        }
      ],
      "stateMutability": "view",
      "type": "function",
      "constant": true
    },
    {
      "inputs": [],
      "name": "getTokens",
      "outputs": [
        {
          "components": [
            {
              "internalType": "bytes32",
              "name": "ticker",
              "type": "bytes32"
            },
            {
              "internalType": "address",
              "name": "tokenAddress",
              "type": "address"
            }
          ],
          "internalType": "struct Dex.Token[]",
          "name": "",
          "type": "tuple[]"
        }
      ],
      "stateMutability": "view",
      "type": "function",
      "constant": true
    },
    {
      "inputs": [
        {
          "internalType": "bytes32",
          "name": "ticker",
          "type": "bytes32"
        },
        {
          "internalType": "address",
          "name": "tokenAddress",
          "type": "address"
        }
      ],
      "name": "addToken",
      "outputs": [],
      "stateMutability": "nonpayable",
      "type": "function"
    },
    {
      "inputs": [
        {
          "internalType": "uint256",
          "name": "amount",
          "type": "uint256"
        },
        {
          "internalType": "bytes32",
          "name": "ticker",
          "type": "bytes32"
        }
      ],
      "name": "deposit",
      "outputs": [],
      "stateMutability": "nonpayable",
      "type": "function"
    },
    {
      "inputs": [
        {
          "internalType": "uint256",
          "name": "amount",
          "type": "uint256"
        },
        {
          "internalType": "bytes32",
          "name": "ticker",
          "type": "bytes32"
        }
      ],
      "name": "withdraw",
      "outputs": [],
      "stateMutability": "nonpayable",
      "type": "function"
    },
    {
      "inputs": [
        {
          "internalType": "bytes32",
          "name": "ticker",
          "type": "bytes32"
        },
        {
          "internalType": "uint256",
          "name": "amount",
          "type": "uint256"
        },
        {
          "internalType": "uint256",
          "name": "price",
          "type": "uint256"
        },
        {
          "internalType": "enum Dex.Side",
          "name": "side",
          "type": "uint8"
        }
      ],
      "name": "createLimitOrder",
      "outputs": [],
      "stateMutability": "nonpayable",
      "type": "function"
    },
    {
      "inputs": [
        {
          "internalType": "bytes32",
          "name": "ticker",
          "type": "bytes32"
        },
        {
          "internalType": "uint256",
          "name": "amount",
          "type": "uint256"
        },
        {
          "internalType": "enum Dex.Side",
          "name": "side",
          "type": "uint8"
        }
      ],
      "name": "createMarketOrder",
      "outputs": [],
      "stateMutability": "nonpayable",
      "type": "function"
    }
  ],
  "bytecode": "0x608060405234801561001057600080fd5b5033600460006101000a81548173ffffffffffffffffffffffffffffffffffffffff021916908373ffffffffffffffffffffffffffffffffffffffff160217905550613859806100616000396000f3fe608060405234801561001057600080fd5b50600436106100ea5760003560e01c80639776aacf1161008c578063aa6ca80811610066578063aa6ca80814610277578063c9630cb014610295578063d9c0c950146102b1578063f851a440146102cd576100ea565b80639776aacf1461020f5780639ead72221461022b578063a8d2021a1461025b576100ea565b806372ce957e116100c857806372ce957e146101745780637f2c6246146101a4578063813ad083146101c0578063904194a3146101de576100ea565b80630bb431b6146100ef5780632a58b3301461012657806346e9658b14610144575b600080fd5b61010960048036038101906101049190612d78565b6102eb565b60405161011d989796959493929190613423565b60405180910390f35b61012e61038a565b60405161013b9190613408565b60405180910390f35b61015e60048036038101906101599190612ced565b610390565b60405161016b91906132c0565b60405180910390f35b61018e60048036038101906101899190612c23565b610566565b60405161019b9190613408565b60405180910390f35b6101be60048036038101906101b99190612d29565b61058b565b005b6101c86117b0565b6040516101d59190613408565b60405180910390f35b6101f860048036038101906101f39190612c88565b6117b6565b60405161020692919061331f565b60405180910390f35b61022960048036038101906102249190612cb1565b6117fa565b005b61024560048036038101906102409190612e2a565b611948565b6040516102529190613304565b60405180910390f35b61027560048036038101906102709190612e53565b61196c565b005b61027f611bd4565b60405161028c91906132e2565b60405180910390f35b6102af60048036038101906102aa9190612e53565b611dc5565b005b6102cb60048036038101906102c69190612dc7565b611f9c565b005b6102d5612b61565b6040516102e29190613245565b60405180910390f35b6003602052826000526040600020602052816000526040600020818154811061031357600080fd5b906000526020600020906007020160009250925050508060000154908060010160009054906101000a900473ffffffffffffffffffffffffffffffffffffffff16908060010160149054906101000a900460ff16908060020154908060030154908060040154908060050154908060060154905088565b60055481565b60606003600084815260200190815260200160002060008360018111156103e0577f4e487b7100000000000000000000000000000000000000000000000000000000600052602160045260246000fd5b8152602001908152602001600020805480602002602001604051908101604052809291908181526020016000905b8282101561055a578382906000526020600020906007020160405180610100016040529081600082015481526020016001820160009054906101000a900473ffffffffffffffffffffffffffffffffffffffff1673ffffffffffffffffffffffffffffffffffffffff1673ffffffffffffffffffffffffffffffffffffffff1681526020016001820160149054906101000a900460ff1660018111156104dd577f4e487b7100000000000000000000000000000000000000000000000000000000600052602160045260246000fd5b6001811115610515577f4e487b7100000000000000000000000000000000000000000000000000000000600052602160045260246000fd5b8152602001600282015481526020016003820154815260200160048201548152602001600582015481526020016006820154815250508152602001906001019061040e565b50505050905092915050565b6002602052816000526040600020602052806000526040600020600091509150505481565b82600073ffffffffffffffffffffffffffffffffffffffff1660008083815260200190815260200160002060010160009054906101000a900473ffffffffffffffffffffffffffffffffffffffff1673ffffffffffffffffffffffffffffffffffffffff161415610631576040517f08c379a0000000000000000000000000000000000000000000000000000000008152600401610628906133e8565b60405180910390fd5b837f4441490000000000000000000000000000000000000000000000000000000000811415610695576040517f08c379a000000000000000000000000000000000000000000000000000000000815260040161068c90613388565b60405180910390fd5b6001808111156106ce577f4e487b7100000000000000000000000000000000000000000000000000000000600052602160045260246000fd5b836001811115610707577f4e487b7100000000000000000000000000000000000000000000000000000000600052602160045260246000fd5b14156107a15783600260003373ffffffffffffffffffffffffffffffffffffffff1673ffffffffffffffffffffffffffffffffffffffff16815260200190815260200160002060008781526020019081526020016000205410156107a0576040517f08c379a0000000000000000000000000000000000000000000000000000000008152600401610797906133a8565b60405180910390fd5b5b60006003600087815260200190815260200160002060008060018111156107f1577f4e487b7100000000000000000000000000000000000000000000000000000000600052602160045260246000fd5b86600181111561082a577f4e487b7100000000000000000000000000000000000000000000000000000000600052602160045260246000fd5b14610836576000610839565b60015b6001811115610871577f4e487b7100000000000000000000000000000000000000000000000000000000600052602160045260246000fd5b815260200190815260200160002090506000808690505b82805490508210801561089b5750600081115b156114535760008383815481106108db577f4e487b7100000000000000000000000000000000000000000000000000000000600052603260045260246000fd5b906000526020600020906007020160040154848481548110610926577f4e487b7100000000000000000000000000000000000000000000000000000000600052603260045260246000fd5b9060005260206000209060070201600301546109429190613627565b905060008183116109535782610955565b815b905080836109639190613627565b92508085858154811061099f577f4e487b7100000000000000000000000000000000000000000000000000000000600052603260045260246000fd5b9060005260206000209060070201600401546109bb9190613577565b8585815481106109f4577f4e487b7100000000000000000000000000000000000000000000000000000000600052603260045260246000fd5b9060005260206000209060070201600401819055503373ffffffffffffffffffffffffffffffffffffffff16858581548110610a59577f4e487b7100000000000000000000000000000000000000000000000000000000600052603260045260246000fd5b906000526020600020906007020160010160009054906101000a900473ffffffffffffffffffffffffffffffffffffffff1673ffffffffffffffffffffffffffffffffffffffff168b7fdb0c486e680ba8026643e6a85f8d157b5e7bcd4b32b54d564542570a9eb20416600654898981548110610aff577f4e487b7100000000000000000000000000000000000000000000000000000000600052603260045260246000fd5b906000526020600020906007020160000154868b8b81548110610b4b577f4e487b7100000000000000000000000000000000000000000000000000000000600052603260045260246000fd5b90600052602060002090600702016005015442604051610b6f9594939291906134a1565b60405180910390a4600180811115610bb0577f4e487b7100000000000000000000000000000000000000000000000000000000600052602160045260246000fd5b886001811115610be9577f4e487b7100000000000000000000000000000000000000000000000000000000600052602160045260246000fd5b1415610f4a5780600260003373ffffffffffffffffffffffffffffffffffffffff1673ffffffffffffffffffffffffffffffffffffffff16815260200190815260200160002060008c81526020019081526020016000206000828254610c4f9190613627565b92505081905550848481548110610c8f577f4e487b7100000000000000000000000000000000000000000000000000000000600052603260045260246000fd5b90600052602060002090600702016005015481610cac91906135cd565b600260003373ffffffffffffffffffffffffffffffffffffffff1673ffffffffffffffffffffffffffffffffffffffff16815260200190815260200160002060007f444149000000000000000000000000000000000000000000000000000000000081526020019081526020016000206000828254610d2b9190613577565b925050819055508060026000878781548110610d70577f4e487b7100000000000000000000000000000000000000000000000000000000600052603260045260246000fd5b906000526020600020906007020160010160009054906101000a900473ffffffffffffffffffffffffffffffffffffffff1673ffffffffffffffffffffffffffffffffffffffff1673ffffffffffffffffffffffffffffffffffffffff16815260200190815260200160002060008c81526020019081526020016000206000828254610dfc9190613577565b92505081905550848481548110610e3c577f4e487b7100000000000000000000000000000000000000000000000000000000600052603260045260246000fd5b90600052602060002090600702016005015481610e5991906135cd565b60026000878781548110610e96577f4e487b7100000000000000000000000000000000000000000000000000000000600052603260045260246000fd5b906000526020600020906007020160010160009054906101000a900473ffffffffffffffffffffffffffffffffffffffff1673ffffffffffffffffffffffffffffffffffffffff1673ffffffffffffffffffffffffffffffffffffffff16815260200190815260200160002060007f444149000000000000000000000000000000000000000000000000000000000081526020019081526020016000206000828254610f429190613627565b925050819055505b60006001811115610f84577f4e487b7100000000000000000000000000000000000000000000000000000000600052602160045260246000fd5b886001811115610fbd577f4e487b7100000000000000000000000000000000000000000000000000000000600052602160045260246000fd5b141561142657848481548110610ffc577f4e487b7100000000000000000000000000000000000000000000000000000000600052603260045260246000fd5b9060005260206000209060070201600501548161101991906135cd565b600260003373ffffffffffffffffffffffffffffffffffffffff1673ffffffffffffffffffffffffffffffffffffffff16815260200190815260200160002060007f444149000000000000000000000000000000000000000000000000000000000081526020019081526020016000205410156110cb576040517f08c379a00000000000000000000000000000000000000000000000000000000081526004016110c2906133c8565b60405180910390fd5b80600260003373ffffffffffffffffffffffffffffffffffffffff1673ffffffffffffffffffffffffffffffffffffffff16815260200190815260200160002060008c8152602001908152602001600020600082825461112b9190613577565b9250508190555084848154811061116b577f4e487b7100000000000000000000000000000000000000000000000000000000600052603260045260246000fd5b9060005260206000209060070201600501548161118891906135cd565b600260003373ffffffffffffffffffffffffffffffffffffffff1673ffffffffffffffffffffffffffffffffffffffff16815260200190815260200160002060007f4441490000000000000000000000000000000000000000000000000000000000815260200190815260200160002060008282546112079190613627565b92505081905550806002600087878154811061124c577f4e487b7100000000000000000000000000000000000000000000000000000000600052603260045260246000fd5b906000526020600020906007020160010160009054906101000a900473ffffffffffffffffffffffffffffffffffffffff1673ffffffffffffffffffffffffffffffffffffffff1673ffffffffffffffffffffffffffffffffffffffff16815260200190815260200160002060008c815260200190815260200160002060008282546112d89190613627565b92505081905550848481548110611318577f4e487b7100000000000000000000000000000000000000000000000000000000600052603260045260246000fd5b9060005260206000209060070201600501548161133591906135cd565b60026000878781548110611372577f4e487b7100000000000000000000000000000000000000000000000000000000600052603260045260246000fd5b906000526020600020906007020160010160009054906101000a900473ffffffffffffffffffffffffffffffffffffffff1673ffffffffffffffffffffffffffffffffffffffff1673ffffffffffffffffffffffffffffffffffffffff16815260200190815260200160002060007f44414900000000000000000000000000000000000000000000000000000000008152602001908152602001600020600082825461141e9190613577565b925050819055505b60066000815480929190611439906136fc565b91905055508380611449906136fc565b9450505050610888565b600091505b8280549050821080156114fe575082828154811061149f577f4e487b7100000000000000000000000000000000000000000000000000000000600052603260045260246000fd5b9060005260206000209060070201600301548383815481106114ea577f4e487b7100000000000000000000000000000000000000000000000000000000600052603260045260246000fd5b906000526020600020906007020160040154145b156117a65760008290505b6001848054905061151a9190613627565b8110156116d7578360018261152f9190613577565b81548110611566577f4e487b7100000000000000000000000000000000000000000000000000000000600052603260045260246000fd5b90600052602060002090600702018482815481106115ad577f4e487b7100000000000000000000000000000000000000000000000000000000600052603260045260246000fd5b9060005260206000209060070201600082015481600001556001820160009054906101000a900473ffffffffffffffffffffffffffffffffffffffff168160010160006101000a81548173ffffffffffffffffffffffffffffffffffffffff021916908373ffffffffffffffffffffffffffffffffffffffff1602179055506001820160149054906101000a900460ff168160010160146101000a81548160ff0219169083600181111561168a577f4e487b7100000000000000000000000000000000000000000000000000000000600052602160045260246000fd5b0217905550600282015481600201556003820154816003015560048201548160040155600582015481600501556006820154816006015590505080806116cf906136fc565b915050611509565b508280548061170f577f4e487b7100000000000000000000000000000000000000000000000000000000600052603160045260246000fd5b60019003818190600052602060002090600702016000808201600090556001820160006101000a81549073ffffffffffffffffffffffffffffffffffffffff02191690556001820160146101000a81549060ff02191690556002820160009055600382016000905560048201600090556005820160009055600682016000905550509055818061179e906136fc565b925050611458565b5050505050505050565b60065481565b60006020528060005260406000206000915090508060000154908060010160009054906101000a900473ffffffffffffffffffffffffffffffffffffffff16905082565b600460009054906101000a900473ffffffffffffffffffffffffffffffffffffffff1673ffffffffffffffffffffffffffffffffffffffff163373ffffffffffffffffffffffffffffffffffffffff161461188a576040517f08c379a000000000000000000000000000000000000000000000000000000000815260040161188190613368565b60405180910390fd5b60405180604001604052808381526020018273ffffffffffffffffffffffffffffffffffffffff168152506000808481526020019081526020016000206000820151816000015560208201518160010160006101000a81548173ffffffffffffffffffffffffffffffffffffffff021916908373ffffffffffffffffffffffffffffffffffffffff16021790555090505060018290806001815401808255809150506001900390600052602060002001600090919091909150555050565b6001818154811061195857600080fd5b906000526020600020016000915090505481565b80600073ffffffffffffffffffffffffffffffffffffffff1660008083815260200190815260200160002060010160009054906101000a900473ffffffffffffffffffffffffffffffffffffffff1673ffffffffffffffffffffffffffffffffffffffff161415611a12576040517f08c379a0000000000000000000000000000000000000000000000000000000008152600401611a09906133e8565b60405180910390fd5b82600260003373ffffffffffffffffffffffffffffffffffffffff1673ffffffffffffffffffffffffffffffffffffffff1681526020019081526020016000206000848152602001908152602001600020541015611aa5576040517f08c379a0000000000000000000000000000000000000000000000000000000008152600401611a9c90613348565b60405180910390fd5b82600260003373ffffffffffffffffffffffffffffffffffffffff1673ffffffffffffffffffffffffffffffffffffffff16815260200190815260200160002060008481526020019081526020016000206000828254611b059190613627565b9250508190555060008083815260200190815260200160002060010160009054906101000a900473ffffffffffffffffffffffffffffffffffffffff1673ffffffffffffffffffffffffffffffffffffffff1663a9059cbb33856040518363ffffffff1660e01b8152600401611b7c929190613297565b602060405180830381600087803b158015611b9657600080fd5b505af1158015611baa573d6000803e3d6000fd5b505050506040513d601f19601f82011682018060405250810190611bce9190612c5f565b50505050565b6060600060018054905067ffffffffffffffff811115611c1d577f4e487b7100000000000000000000000000000000000000000000000000000000600052604160045260246000fd5b604051908082528060200260200182016040528015611c5657816020015b611c43612b87565b815260200190600190039081611c3b5790505b50905060005b600180549050811015611dbd57604051806040016040528060008060018581548110611cb1577f4e487b7100000000000000000000000000000000000000000000000000000000600052603260045260246000fd5b9060005260206000200154815260200190815260200160002060000154815260200160008060018581548110611d10577f4e487b7100000000000000000000000000000000000000000000000000000000600052603260045260246000fd5b9060005260206000200154815260200190815260200160002060010160009054906101000a900473ffffffffffffffffffffffffffffffffffffffff1673ffffffffffffffffffffffffffffffffffffffff16815250828281518110611d9f577f4e487b7100000000000000000000000000000000000000000000000000000000600052603260045260246000fd5b60200260200101819052508080611db5906136fc565b915050611c5c565b508091505090565b80600073ffffffffffffffffffffffffffffffffffffffff1660008083815260200190815260200160002060010160009054906101000a900473ffffffffffffffffffffffffffffffffffffffff1673ffffffffffffffffffffffffffffffffffffffff161415611e6b576040517f08c379a0000000000000000000000000000000000000000000000000000000008152600401611e62906133e8565b60405180910390fd5b60008083815260200190815260200160002060010160009054906101000a900473ffffffffffffffffffffffffffffffffffffffff1673ffffffffffffffffffffffffffffffffffffffff166323b872dd3330866040518463ffffffff1660e01b8152600401611edd93929190613260565b602060405180830381600087803b158015611ef757600080fd5b505af1158015611f0b573d6000803e3d6000fd5b505050506040513d601f19601f82011682018060405250810190611f2f9190612c5f565b5082600260003373ffffffffffffffffffffffffffffffffffffffff1673ffffffffffffffffffffffffffffffffffffffff16815260200190815260200160002060008481526020019081526020016000206000828254611f909190613577565b92505081905550505050565b83600073ffffffffffffffffffffffffffffffffffffffff1660008083815260200190815260200160002060010160009054906101000a900473ffffffffffffffffffffffffffffffffffffffff1673ffffffffffffffffffffffffffffffffffffffff161415612042576040517f08c379a0000000000000000000000000000000000000000000000000000000008152600401612039906133e8565b60405180910390fd5b847f44414900000000000000000000000000000000000000000000000000000000008114156120a6576040517f08c379a000000000000000000000000000000000000000000000000000000000815260040161209d90613388565b60405180910390fd5b6001808111156120df577f4e487b7100000000000000000000000000000000000000000000000000000000600052602160045260246000fd5b836001811115612118577f4e487b7100000000000000000000000000000000000000000000000000000000600052602160045260246000fd5b14156121b65784600260003373ffffffffffffffffffffffffffffffffffffffff1673ffffffffffffffffffffffffffffffffffffffff16815260200190815260200160002060008881526020019081526020016000205410156121b1576040517f08c379a00000000000000000000000000000000000000000000000000000000081526004016121a8906133a8565b60405180910390fd5b612275565b83856121c291906135cd565b600260003373ffffffffffffffffffffffffffffffffffffffff1673ffffffffffffffffffffffffffffffffffffffff16815260200190815260200160002060007f44414900000000000000000000000000000000000000000000000000000000008152602001908152602001600020541015612274576040517f08c379a000000000000000000000000000000000000000000000000000000000815260040161226b906133c8565b60405180910390fd5b5b60006003600088815260200190815260200160002060008560018111156122c5577f4e487b7100000000000000000000000000000000000000000000000000000000600052602160045260246000fd5b815260200190815260200160002090508060405180610100016040528060055481526020013373ffffffffffffffffffffffffffffffffffffffff16815260200186600181111561233f577f4e487b7100000000000000000000000000000000000000000000000000000000600052602160045260246000fd5b8152602001898152602001888152602001600081526020018781526020014281525090806001815401808255809150506001900390600052602060002090600702016000909190919091506000820151816000015560208201518160010160006101000a81548173ffffffffffffffffffffffffffffffffffffffff021916908373ffffffffffffffffffffffffffffffffffffffff16021790555060408201518160010160146101000a81548160ff0219169083600181111561242c577f4e487b7100000000000000000000000000000000000000000000000000000000600052602160045260246000fd5b0217905550606082015181600201556080820151816003015560a0820151816004015560c0820151816005015560e08201518160060155505060008082805490501161247957600061248b565b6001828054905061248a9190613627565b5b90505b6000811115612b3f57600060018111156124d1577f4e487b7100000000000000000000000000000000000000000000000000000000600052602160045260246000fd5b85600181111561250a577f4e487b7100000000000000000000000000000000000000000000000000000000600052602160045260246000fd5b1480156125b6575081818154811061254b577f4e487b7100000000000000000000000000000000000000000000000000000000600052603260045260246000fd5b9060005260206000209060070201600501548260018361256b9190613627565b815481106125a2577f4e487b7100000000000000000000000000000000000000000000000000000000600052603260045260246000fd5b906000526020600020906007020160050154115b156125c057612b3f565b6001808111156125f9577f4e487b7100000000000000000000000000000000000000000000000000000000600052602160045260246000fd5b856001811115612632577f4e487b7100000000000000000000000000000000000000000000000000000000600052602160045260246000fd5b1480156126de5750818181548110612673577f4e487b7100000000000000000000000000000000000000000000000000000000600052603260045260246000fd5b906000526020600020906007020160050154826001836126939190613627565b815481106126ca577f4e487b7100000000000000000000000000000000000000000000000000000000600052603260045260246000fd5b906000526020600020906007020160050154105b156126e857612b3f565b6000826001836126f89190613627565b8154811061272f577f4e487b7100000000000000000000000000000000000000000000000000000000600052603260045260246000fd5b906000526020600020906007020160405180610100016040529081600082015481526020016001820160009054906101000a900473ffffffffffffffffffffffffffffffffffffffff1673ffffffffffffffffffffffffffffffffffffffff1673ffffffffffffffffffffffffffffffffffffffff1681526020016001820160149054906101000a900460ff1660018111156127f4577f4e487b7100000000000000000000000000000000000000000000000000000000600052602160045260246000fd5b600181111561282c577f4e487b7100000000000000000000000000000000000000000000000000000000600052602160045260246000fd5b815260200160028201548152602001600382015481526020016004820154815260200160058201548152602001600682015481525050905082828154811061289d577f4e487b7100000000000000000000000000000000000000000000000000000000600052603260045260246000fd5b9060005260206000209060070201836001846128b99190613627565b815481106128f0577f4e487b7100000000000000000000000000000000000000000000000000000000600052603260045260246000fd5b9060005260206000209060070201600082015481600001556001820160009054906101000a900473ffffffffffffffffffffffffffffffffffffffff168160010160006101000a81548173ffffffffffffffffffffffffffffffffffffffff021916908373ffffffffffffffffffffffffffffffffffffffff1602179055506001820160149054906101000a900460ff168160010160146101000a81548160ff021916908360018111156129cd577f4e487b7100000000000000000000000000000000000000000000000000000000600052602160045260246000fd5b0217905550600282015481600201556003820154816003015560048201548160040155600582015481600501556006820154816006015590505080838381548110612a41577f4e487b7100000000000000000000000000000000000000000000000000000000600052603260045260246000fd5b90600052602060002090600702016000820151816000015560208201518160010160006101000a81548173ffffffffffffffffffffffffffffffffffffffff021916908373ffffffffffffffffffffffffffffffffffffffff16021790555060408201518160010160146101000a81548160ff02191690836001811115612af1577f4e487b7100000000000000000000000000000000000000000000000000000000600052602160045260246000fd5b0217905550606082015181600201556080820151816003015560a0820151816004015560c0820151816005015560e082015181600601559050508180612b36906136d2565b9250505061248e565b60056000815480929190612b52906136fc565b91905055505050505050505050565b600460009054906101000a900473ffffffffffffffffffffffffffffffffffffffff1681565b604051806040016040528060008019168152602001600073ffffffffffffffffffffffffffffffffffffffff1681525090565b600081359050612bc9816137b7565b92915050565b600081519050612bde816137ce565b92915050565b600081359050612bf3816137e5565b92915050565b600081359050612c08816137fc565b92915050565b600081359050612c1d8161380c565b92915050565b60008060408385031215612c3657600080fd5b6000612c4485828601612bba565b9250506020612c5585828601612be4565b9150509250929050565b600060208284031215612c7157600080fd5b6000612c7f84828501612bcf565b91505092915050565b600060208284031215612c9a57600080fd5b6000612ca884828501612be4565b91505092915050565b60008060408385031215612cc457600080fd5b6000612cd285828601612be4565b9250506020612ce385828601612bba565b9150509250929050565b60008060408385031215612d0057600080fd5b6000612d0e85828601612be4565b9250506020612d1f85828601612bf9565b9150509250929050565b600080600060608486031215612d3e57600080fd5b6000612d4c86828701612be4565b9350506020612d5d86828701612c0e565b9250506040612d6e86828701612bf9565b9150509250925092565b600080600060608486031215612d8d57600080fd5b6000612d9b86828701612be4565b9350506020612dac86828701612c0e565b9250506040612dbd86828701612c0e565b9150509250925092565b60008060008060808587031215612ddd57600080fd5b6000612deb87828801612be4565b9450506020612dfc87828801612c0e565b9350506040612e0d87828801612c0e565b9250506060612e1e87828801612bf9565b91505092959194509250565b600060208284031215612e3c57600080fd5b6000612e4a84828501612c0e565b91505092915050565b60008060408385031215612e6657600080fd5b6000612e7485828601612c0e565b9250506020612e8585828601612be4565b9150509250929050565b6000612e9b8383613156565b6101008301905092915050565b6000612eb483836131f8565b60408301905092915050565b612ec98161365b565b82525050565b612ed88161365b565b82525050565b6000612ee982613514565b612ef38185613544565b9350612efe836134f4565b8060005b83811015612f2f578151612f168882612e8f565b9750612f218361352a565b925050600181019050612f02565b5085935050505092915050565b6000612f478261351f565b612f518185613555565b9350612f5c83613504565b8060005b83811015612f8d578151612f748882612ea8565b9750612f7f83613537565b925050600181019050612f60565b5085935050505092915050565b612fa381613679565b82525050565b612fb281613679565b82525050565b612fc1816136c0565b82525050565b612fd0816136c0565b82525050565b6000612fe3600f83613566565b91507f62616c616e636520746f6f206c6f7700000000000000000000000000000000006000830152602082019050919050565b6000613023600a83613566565b91507f6f6e6c792061646d696e000000000000000000000000000000000000000000006000830152602082019050919050565b6000613063601083613566565b91507f63616e6e6f7420747261646520444149000000000000000000000000000000006000830152602082019050919050565b60006130a3601583613566565b91507f746f6b656e2062616c616e636520746f6f206c6f7700000000000000000000006000830152602082019050919050565b60006130e3601383613566565b91507f6461692062616c616e636520746f6f206c6f77000000000000000000000000006000830152602082019050919050565b6000613123601983613566565b91507f7468697320746f6b656e20646f6573206e6f74206578697374000000000000006000830152602082019050919050565b6101008201600082015161316d6000850182613227565b5060208201516131806020850182612ec0565b5060408201516131936040850182612fb8565b5060608201516131a66060850182612f9a565b5060808201516131b96080850182613227565b5060a08201516131cc60a0850182613227565b5060c08201516131df60c0850182613227565b5060e08201516131f260e0850182613227565b50505050565b60408201600082015161320e6000850182612f9a565b5060208201516132216020850182612ec0565b50505050565b613230816136b6565b82525050565b61323f816136b6565b82525050565b600060208201905061325a6000830184612ecf565b92915050565b60006060820190506132756000830186612ecf565b6132826020830185612ecf565b61328f6040830184613236565b949350505050565b60006040820190506132ac6000830185612ecf565b6132b96020830184613236565b9392505050565b600060208201905081810360008301526132da8184612ede565b905092915050565b600060208201905081810360008301526132fc8184612f3c565b905092915050565b60006020820190506133196000830184612fa9565b92915050565b60006040820190506133346000830185612fa9565b6133416020830184612ecf565b9392505050565b6000602082019050818103600083015261336181612fd6565b9050919050565b6000602082019050818103600083015261338181613016565b9050919050565b600060208201905081810360008301526133a181613056565b9050919050565b600060208201905081810360008301526133c181613096565b9050919050565b600060208201905081810360008301526133e1816130d6565b9050919050565b6000602082019050818103600083015261340181613116565b9050919050565b600060208201905061341d6000830184613236565b92915050565b600061010082019050613439600083018b613236565b613446602083018a612ecf565b6134536040830189612fc7565b6134606060830188612fa9565b61346d6080830187613236565b61347a60a0830186613236565b61348760c0830185613236565b61349460e0830184613236565b9998505050505050505050565b600060a0820190506134b66000830188613236565b6134c36020830187613236565b6134d06040830186613236565b6134dd6060830185613236565b6134ea6080830184613236565b9695505050505050565b6000819050602082019050919050565b6000819050602082019050919050565b600081519050919050565b600081519050919050565b6000602082019050919050565b6000602082019050919050565b600082825260208201905092915050565b600082825260208201905092915050565b600082825260208201905092915050565b6000613582826136b6565b915061358d836136b6565b9250827fffffffffffffffffffffffffffffffffffffffffffffffffffffffffffffffff038211156135c2576135c1613745565b5b828201905092915050565b60006135d8826136b6565b91506135e3836136b6565b9250817fffffffffffffffffffffffffffffffffffffffffffffffffffffffffffffffff048311821515161561361c5761361b613745565b5b828202905092915050565b6000613632826136b6565b915061363d836136b6565b9250828210156136505761364f613745565b5b828203905092915050565b600061366682613696565b9050919050565b60008115159050919050565b6000819050919050565b6000819050613691826137a3565b919050565b600073ffffffffffffffffffffffffffffffffffffffff82169050919050565b6000819050919050565b60006136cb82613683565b9050919050565b60006136dd826136b6565b915060008214156136f1576136f0613745565b5b600182039050919050565b6000613707826136b6565b91507fffffffffffffffffffffffffffffffffffffffffffffffffffffffffffffffff82141561373a57613739613745565b5b600182019050919050565b7f4e487b7100000000000000000000000000000000000000000000000000000000600052601160045260246000fd5b7f4e487b7100000000000000000000000000000000000000000000000000000000600052602160045260246000fd5b600281106137b4576137b3613774565b5b50565b6137c08161365b565b81146137cb57600080fd5b50565b6137d78161366d565b81146137e257600080fd5b50565b6137ee81613679565b81146137f957600080fd5b50565b6002811061380957600080fd5b50565b613815816136b6565b811461382057600080fd5b5056fea26469706673582212201aa6a821572dba39b676c1b1fc3ab6b8cdd5dbca57a2a8bd110928ceff6a483a64736f6c63430008000033",
  "immutableReferences": {},
  "source": "pragma solidity 0.8.0;\n\nimport '@openzeppelin/contracts/token/ERC20/IERC20.sol';\n\ncontract Dex {\n       \n    enum Side {\n        BUY,\n        SELL\n    }\n    \n    struct Token {\n        bytes32 ticker;\n        address tokenAddress;\n    }\n    \n    struct Order {\n        uint id;\n        address trader;\n        Side side;\n        bytes32 ticker;\n        uint amount;\n        uint filled;\n        uint price;\n        uint date;\n    }\n    \n    mapping(bytes32 => Token) public tokens;\n    bytes32[] public tokenList;\n    mapping(address => mapping(bytes32 => uint)) public traderBalances;\n    mapping(bytes32 => mapping(uint => Order[])) public orderBook;\n    address public admin;\n    uint public nextOrderId;\n    uint public nextTradeId;\n    bytes32 constant DAI = bytes32('DAI');\n    \n    event NewTrade(\n        uint tradeId,\n        uint orderId,\n        bytes32 indexed ticker,\n        address indexed trader1,\n        address indexed trader2,\n        uint amount,\n        uint price,\n        uint date\n    );\n    \n    constructor() {\n        admin = msg.sender;\n    }\n\n    /// @param ticker The name of the token\n    /// @param side Which side of an order (BUY/SELL)\n    /// @return an array of orders for given ticker and side\n    function getOrders(\n      bytes32 ticker, \n      Side side) \n      external \n      view\n      returns(Order[] memory) {\n      return orderBook[ticker][uint(side)];\n    }\n\n    /// @return an array of Token struct\n    function getTokens() \n      external \n      view \n      returns(Token[] memory) {\n      Token[] memory _tokens = new Token[](tokenList.length);\n      for (uint i = 0; i < tokenList.length; i++) {\n        _tokens[i] = Token(\n          tokens[tokenList[i]].ticker,\n          tokens[tokenList[i]].tokenAddress\n        );\n      }\n      return _tokens;\n    }\n    \n    /// @param ticker Name of token to be added\n    /// @param tokenAddress Address of token to be added\n    function addToken(\n        bytes32 ticker,\n        address tokenAddress)\n        onlyAdmin()\n        external {\n        tokens[ticker] = Token(ticker, tokenAddress);\n        tokenList.push(ticker);\n    }\n    \n    /// @param amount of token to be deposited\n    /// @param ticker Name of token to be deposited\n    function deposit(\n        uint amount,\n        bytes32 ticker)\n        tokenExist(ticker)\n        external {\n        IERC20(tokens[ticker].tokenAddress).transferFrom(\n            msg.sender,\n            address(this),\n            amount\n        );\n        traderBalances[msg.sender][ticker] += amount;\n    }\n    \n    /// @param amount how much to withdraw from trader account balance\n    /// @param ticker name of token\n    function withdraw(\n        uint amount,\n        bytes32 ticker)\n        tokenExist(ticker)\n        external {\n        require(\n            traderBalances[msg.sender][ticker] >= amount,\n            'balance too low'\n        ); \n        traderBalances[msg.sender][ticker] -= amount;\n        IERC20(tokens[ticker].tokenAddress).transfer(msg.sender, amount);\n    }\n    \n    /// @param ticker Name of token for limit order\n    /// @param amount How many tokens to buy or sell\n    /// @param price Token price for order\n    /// @param side Which side (buy or sell)\n    function createLimitOrder(\n        bytes32 ticker,\n        uint amount,\n        uint price,\n        Side side)\n        tokenExist(ticker)\n        tokenIsNotDai(ticker)\n        external {\n        if(side == Side.SELL) {\n            require(\n                traderBalances[msg.sender][ticker] >= amount, \n                'token balance too low'\n            );\n        } else {\n            require(\n                traderBalances[msg.sender][DAI] >= amount*(price),\n                'dai balance too low'\n            );\n        }\n        Order[] storage orders = orderBook[ticker][uint(side)];\n        orders.push(Order(\n            nextOrderId,\n            msg.sender,\n            side,\n            ticker,\n            amount,\n            0,\n            price,\n            //now\n            block.timestamp \n        ));\n        //bubble sort\n        uint i = orders.length > 0 ? orders.length - 1 : 0;\n        while(i > 0) {\n            if(side == Side.BUY && orders[i - 1].price > orders[i].price) {\n                break;   \n            }\n            if(side == Side.SELL && orders[i - 1].price < orders[i].price) {\n                break;   \n            }\n            Order memory order = orders[i - 1];\n            orders[i - 1] = orders[i];\n            orders[i] = order;\n            i--;\n        }\n        nextOrderId++;\n    }\n    /// @param ticker Name of token\n    /// @param amount How many tokens to buy or sell\n    /// @param side What type of order (buy or sell)\n    function createMarketOrder(\n        bytes32 ticker,\n        uint amount,\n        Side side)\n        tokenExist(ticker)\n        tokenIsNotDai(ticker)\n        external {\n        if(side == Side.SELL) {\n            require(\n                traderBalances[msg.sender][ticker] >= amount, \n                'token balance too low'\n            );\n        }\n        Order[] storage orders = orderBook[ticker][uint(side == Side.BUY ? Side.SELL : Side.BUY)];\n        uint i;\n        uint remaining = amount;\n        \n        while(i < orders.length && remaining > 0) {\n            uint available = orders[i].amount - orders[i].filled;\n            uint matched = (remaining > available) ? available : remaining;\n            remaining = remaining - matched;\n            orders[i].filled = orders[i].filled + matched;\n            emit NewTrade(\n                nextTradeId,\n                orders[i].id,\n                ticker,\n                orders[i].trader,\n                msg.sender,\n                matched,\n                orders[i].price,\n                //now\n                block.timestamp \n            );\n            if(side == Side.SELL) {\n                traderBalances[msg.sender][ticker] -= matched;\n                traderBalances[msg.sender][DAI] += matched*(orders[i].price);\n                traderBalances[orders[i].trader][ticker] += matched;\n                traderBalances[orders[i].trader][DAI] -= matched*(orders[i].price);\n            }\n            if(side == Side.BUY) {\n                require(\n                    traderBalances[msg.sender][DAI] >= matched*(orders[i].price),\n                    'dai balance too low'\n                );\n                traderBalances[msg.sender][ticker] += matched;\n                traderBalances[msg.sender][DAI] -= matched*(orders[i].price);\n                traderBalances[orders[i].trader][ticker] -= matched;\n                traderBalances[orders[i].trader][DAI] += matched*(orders[i].price);\n            }\n            nextTradeId++;\n            i++;\n        }\n        //cleanup filled orders\n        i = 0;\n        while(i < orders.length && orders[i].filled == orders[i].amount) {\n            for(uint j = i; j < orders.length - 1; j++ ) {\n                orders[j] = orders[j + 1];\n            }\n            orders.pop();\n            i++;\n        }\n    }\n   \n    modifier tokenIsNotDai(bytes32 ticker) {\n       require(ticker != DAI, 'cannot trade DAI');\n       _;\n    }     \n    \n    modifier tokenExist(bytes32 ticker) {\n        require(\n            tokens[ticker].tokenAddress != address(0),\n            'this token does not exist'\n        );\n        _;\n    }\n    \n    modifier onlyAdmin() {\n        require(msg.sender == admin, 'only admin');\n        _;\n    }\n}",
  "sourcePath": "/Users/00shoe/Projects/DEX-erc20/contracts/Dex.sol",
  "compiler": {
    "name": "solc",
    "version": "0.8.0+commit.c7dfd78e.Emscripten.clang"
  },
  "schemaVersion": "3.2.4",
  "updatedAt": "2021-06-23T14:55:56.859Z",
  "networkType": "ethereum",
  "devdoc": {
    "kind": "dev",
    "methods": {
      "addToken(bytes32,address)": {
        "params": {
          "ticker": "Name of token to be added",
          "tokenAddress": "Address of token to be added"
        }
      },
      "createLimitOrder(bytes32,uint256,uint256,uint8)": {
        "params": {
          "amount": "How many tokens to buy or sell",
          "price": "Token price for order",
          "side": "Which side (buy or sell)",
          "ticker": "Name of token for limit order"
        }
      },
      "createMarketOrder(bytes32,uint256,uint8)": {
        "params": {
          "amount": "How many tokens to buy or sell",
          "side": "What type of order (buy or sell)",
          "ticker": "Name of token"
        }
      },
      "deposit(uint256,bytes32)": {
        "params": {
          "amount": "of token to be deposited",
          "ticker": "Name of token to be deposited"
        }
      },
      "getOrders(bytes32,uint8)": {
        "params": {
          "side": "Which side of an order (BUY/SELL)",
          "ticker": "The name of the token"
        },
        "returns": {
          "_0": "an array of orders for given ticker and side"
        }
      },
      "getTokens()": {
        "returns": {
          "_0": "an array of Token struct"
        }
      },
      "withdraw(uint256,bytes32)": {
        "params": {
          "amount": "how much to withdraw from trader account balance",
          "ticker": "name of token"
        }
      }
    },
    "version": 1
  },
  "userdoc": {
    "kind": "user",
    "methods": {},
    "version": 1
  }
}